:020000021000EC
:10F0000000400020DD000200BD000200BD00020043
:10F0100000000000000000000000000000000000F0
:10F02000000000000000000000000000BD00020021
:10F030000000000000000000BD000200BD00020052
:10F04000BD000200BD000200BD000200BD000200C4
:10F05000BD00020000000000BD000200BD00020073
:10F06000BD000200BD000200BD000200BD000200A4
:10F07000BD000200BD000200BD000200BD00020094
:10F08000BD000200BD000200BD000200BD00020084
:10F09000BD000200BD000200BD000200BD00020074
:10F0A000BD000200BD0002000000000000000000E2
:10F0B0000000000000000000000000000000000050
:10F0C00010B5064C2378002B07D1054B002B02D03E
:10F0D000044800E000BF0123237010BDF820002089
:10F0E000000000004C03020008B5084B002B03D0C1
:10F0F0000748084900E000BF07480368002B03D019
:10F10000064B002B00D0984708BDC0460000000009
:10F110004C030200FC2000204C0302000000000011
:10F1200010B5164B1A781C1C002A1ED00520012190
:10F1300000F09AFE0620012100F096FE1E24211CFC
:10F14000042000F0F9FC0134022000F0A9FBFF2CA0
:10F15000F5D1FE24211C042000F0EEFC013C02202D
:10F1600000F09EFB1E2CF5D1DBE72178002903D1AE
:10F17000052000F079FEF8E710BDC04614210020FC
:10F1800010B5FE24211C062000F0D6FC013C07200F
:10F1900000F086FB002CF5D1211C062000F0CCFCF1
:10F1A000FF21091B052000F0C7FC0134072000F0F7
:10F1B00077FBFE2CF0D10024211C052000F0BCFCC4
:10F1C000FF21091B042000F0B7FC0134072000F0E8
:10F1D00067FBFE2CF0D1642000F062FB10BD000044
:10F1E000FA2070B5400000F05BFB234C2349201C43
:10F1F00000F088FE0620012100F0FCFD0620FF2122
:10F2000000F09AFC0420012100F0F4FD0420FF210D
:10F2100000F092FC0520012100F0ECFD0520FF210B
:10F2200000F08AFC164D28680378002B13D1800A61
:10F23000C0B200F05FFA134E134930600122286813
:10F2400000F0BCFA11493060201C00F05BFEFA208F
:10F25000800000F025FB2B6819780D4B19700029F0
:10F2600006D0FFF78DFF201C0A4900F04BFE02E09C
:10F27000052000F061FC70BD202100202202020068
:10F280000020002018210020042000202F0202006E
:10F29000142100204202020008B5024800F0DAFE04
:10F2A00008BDC0462021002038B50A4CA123012505
:10F2B0000022DB006560A560E2500223D1229A4063
:10F2C000A350C1229A40A3501120034900F08AFAAA
:10F2D000256038BD0010014011F8010008B5FFF7A6
:10F2E000E3FF08BD044B054AD050054B1A78012AAC
:10F2F00001D102221A7070471C0500000020004056
:10F300001C210020014B0022DA607047FC200040E5
:10F31000014B00221A627047FC20004008499022ED
:10F32000D2008858012330B5184001D08B5004E03A
:10F330008D580424254201D08C50181C30BDC04685
:10F340000020004038B5074D281C00F0E5FD064CB4
:10F35000201C00F0E1FD291C221C044800F034FEB2
:10F3600038BDC0463C2100208421002020210020FF
:10F3700070B50E4D2B78002B17D00D4C0D4800F0BA
:10F380000DFE0123E3606360A023DB000026E6504E
:10F39000022000F031FA084B0C21E258A023C132C0
:10F3A000FF329200DB05D1502E7070BD1C21002071
:10F3B00000200040202100200C05000008B5011CA1
:10F3C000014800F025FE08BD20210020F8B5041CEE
:10F3D00059480678002E00D0ACE0E0204000171815
:10F3E000A0255648ED05BF007851E02040000F18D9
:10F3F000BF007E51524D534EAA51534AA9509622F6
:10F40000120294425DD029DC96229201944252D09D
:10F410000EDC96221201944248D096225201944268
:10F4200047D09622D200944256D19E23DB0253E06D
:10F430009622D201944240D006DCE122920194420D
:10F440004AD1EC239B0347E0E122D201944236D01B
:10F450003E4A944240D180231B043DE0E1229202C7
:10F46000944234D00DDC9622520294422BD0E122F9
:10F470005202944229D0E122120294422CD1344B00
:10F480002AE0E122D202944223D005DC314A9442A0
:10F4900022D18023DB041FE0E122120394421AD020
:10F4A0002D4A944218D180235B0515E09D231B0350
:10F4B00012E02A4B10E02A4B0EE02A4B0CE02A4BBC
:10F4C0000AE02A4B08E02A4B06E02A4B04E02A4BCC
:10F4D00002E02A4B00E02A4B2A4A8421AB50A023A9
:10F4E0000422DB00EA50284B0022DA601A62C123B2
:10F4F0009B00EA5801260A43EA500F4B0220234999
:10F500001E7000F06FF9224BAE601B782E60002B4E
:10F5100010D1204B1B68002B0CD096239B019C42E2
:10F5200008DD1D4C2078002803D00134FFF746FF8A
:10F53000F8E7FEE7F8BDC0461C21002001030000EB
:10F54000002000400C05000014050000127A0000A5
:10F5500000F0EB0090D0030040420F0000B0130019
:10F560000050270000A04E0000F0750000509D00E4
:10F5700000903A0100E0D70100B0AF0300705F07D0
:10F58000A4DFBE0E24050000FC20004099F201001B
:10F590001D210020D82100205102020023DF7047E6
:10F5A00024DF704728DF704742DF704743DF704732
:10F5B00044DF704770B58901002815DAC0B20F2307
:10F5C0000340083B124A9B089B009B1803221040F3
:10F5D000FF24C200DD69201C904085430C4094400C
:10F5E0002A1C2243DA6112E082080A4B03249200AB
:10F5F000D2182040C023A0409B00FF24D558261CD1
:10F600008640B5430C408440281C2043D05070BD38
:10F6100000ED00E000E100E00D4B10B51B68041C9C
:10F62000002B06D0FFF7C4FF0120A040FFF7BCFF6E
:10F630000DE0C30007481B18A220C000195006495E
:10F640005A500123A3401C1C024A044BD45010BD45
:10F65000D821002000F0014014050000040500003E
:10F6600008B5074B1A6801238340181C002A02D0F2
:10F67000FFF79CFF03E0A1220249D2008B5008BD96
:10F68000D821002000F001400D4B10B51B68041C70
:10F69000002B08D044B2201C0121FFF783FF201C5F
:10F6A000FFF77CFF0AE040B20121FFF783FF1F2331
:10F6B0001C400123A3401C1C024B1C6010BDC04613
:10F6C000D821002000E100E008B5084B1B68002BA2
:10F6D00003D040B2FFF764FF06E01F231840012368
:10F6E0008340181C024BD86708BDC046D8210020B3
:10F6F00004E100E0031C7C3B30B51A0622D4144A16
:10F700000221920AD2B20B1C90421ED9114B124A0E
:10F7100099508021C9005D580C1C002DF9D0A12101
:10F720000C4D8002C900685018590A490028FBD0C6
:10F7300088580224A04388508022D2009A58002A78
:10F74000FAD001E0012300E00023181C30BDC046C0
:10F750004404020000E0014004050000820AD2B225
:10F76000131C7C3B30B51C061BD4104C0223A40A8E
:10F77000E4B2A24218D90E4B1B68002BFBD10D4AF4
:10F780000D4B01249C50141C8022D2009D58002D4A
:10F79000FAD0016008490020085199580029FCD08E
:10F7A00001E0012300E00023181C30BD44040200E6
:10F7B000DC2100200405000000E0014070B5941039
:10F7C0009207D20F0D1CA418002C08DD02CD061DD7
:10F7D000FFF7C4FF013C002802D1301CF4E70020F1
:10F7E00070BD000008B5034B82001B68D150FFF7C5
:10F7F0004BFF08BD3420002010B5041CFFF764FF48
:10F80000024BA4001B680022E25010BD34200020EF
:10F8100030B50F4DAB68002B10D00E4C0B4B0A4A85
:10F820002068616812184B4122606360206861683B
:10F83000CBB2021C226063600023AB6000236B64C8
:10F8400030BDC046C046C0460000000100000000B8
:10F85000FC100140E82100200B4B0C4A1868596845
:10F860000B4B10B5D4580023221C80185941054B6E
:10F87000034A00F07FFC4B04C00B1843C90B10BDBA
:10F88000E803000000000000E82100200010014013
:10F8900004050000C046C04608B5FFF7DDFF08BDFF
:10F8A00038B5041CFFF7F8FF051CFFF7F5FF401BF8
:10F8B000A04202D200F000FCF7E738BD914205D02B
:10F8C00002D9891AC84001E0511A884070470000E7
:10F8D0000B4B10B510220C1C1968FFF7EFFF0D231E
:10F8E000181A084BA200D050A2235B00E218064B66
:10F8F0009200D3589A0702D1044B01221A5510BD29
:10F90000202000202420002000600040F021002062
:10F910000A4B8000C0180A4AA223DB00C250C0462E
:10F92000C046C04601230360064B09021943A223C7
:10F93000DB00C150C046C046C04670470060004072
:10F94000031F02000300030010B50A4B0A4AD968DE
:10F95000A823DB00094CD150E378012B06D1084BDA
:10F9600003201978FFF7D4FF0023E370054B002232
:10F970001A6510BD2420002000A00040F0210020C6
:10F9800005200020FCA00040194A1A4B1068A8214D
:10F99000C90070B5585050681749184C58509168B4
:10F9A000A922D20099502378154D012B07D10026AA
:10F9B000144B6E641978301CFFF7AAFF267060782C
:10F9C000012806D100260F4BAE645978FFF7A0FF3F
:10F9D0006670A378012B07D100260A4BEE64997854
:10F9E0000220FFF795FFA67000232B6570BDC0466F
:10F9F000242000200090004044050000F021002059
:10FA0000FC900040162000200F4B10B51A6803230D
:10FA1000511E8A41524213400C4A1168102200299B
:10FA200000D00822A0210A4CC90064580121994045
:10FA30000C4201D1834204D101339342F2DBFF2017
:10FA400000E0181C10BDC046E0210020D421002099
:10FA500000F00140F0B5071C85B0FF200291151C95
:10FA60000393FFF7D1FF041CFFF7CEFF061CFF2C0A
:10FA70001ED0FF281CD0029A03990E4BE4B20194C9
:10FA800050319400E418890069180198221CFFF78E
:10FA9000C3FD019B084A7F00BB54A622F6B2520068
:10FAA000A918301C221CFFF7B7FD034BDF197E702D
:10FAB00005B0F0BD006000400820002070B5184E71
:10FAC0004500041CA85DFF2803D0FFF7C9FDFF23F4
:10FAD000AB5575196878FF2803D0FFF7C1FDFF23E8
:10FAE0006B70104B1A5DFF2A07D04532FF320E486B
:10FAF0000E4992005050FF221A5500230C4A9A18C2
:10FB00001178A14201D1FF2111700A4A9A18117887
:10FB1000A14201D1FF2111700133032BEED170BD41
:10FB20000820002019200020001F03000060004072
:10FB30001620002005200020F7B5061C01910029A1
:10FB400004D00199FF2904D1301C012100F08CF967
:10FB50002FE1984A1078151CB04202D1019800217B
:10FB600005E0944B5A78B24204D101980121FFF785
:10FB7000AFFE1EE18F498B78B34202D1019802217A
:10FB8000F5E78D4C2178B14202D101980321EEE7CF
:10FB9000FF2873D1894F301C0021FF2A4BD1FF2B46
:10FBA00049D100F061F9301C012100F023F9002057
:10FBB000311CFFF7ADFE824C824A0025012395558A
:10FBC0006360814B0D22E550A223DB00E550A123A9
:10FBD000DB00E550A8230121DB00E160E2507B4B14
:10FBE0000920E250A923DB00E250794B8022E55046
:10FBF000C12312039B007D647649BD64FD643D65AD
:10FC0000E250FFF7EFFD01232360301C291C221C6A
:10FC10002B1CFFF71FFF704B102219680198FFF78C
:10FC20004DFE0D216D4B081A1860624A6C4B012184
:10FC300016709955BDE000F017F9301C012100F055
:10FC4000D9F80020311CFFF763FE5E4A002494556A
:10FC5000301C211C5A4A231CFFF7FCFE5E4B019806
:10FC600019681022FFF72AFE0D23181A5B4B012298
:10FC700018605B4B2E709A557C649AE0FF2A26D15F
:10FC8000301C002100F0F0F8301C012100F0B2F827
:10FC90000120311CFFF73CFE4A4B01249C55301CCF
:10FCA000211C474A231CFFF7D5FE4B4B01981968CE
:10FCB0001022FFF703FE0D23181A484B002258604C
:10FCC0003C4B5E70464B9C553C4B9A6471E0FF2B5D
:10FCD00026D1301C002100F0C7F8301C012100F0B3
:10FCE00089F80220311CFFF713FE364A0223935590
:10FCF000191C301C324AFFF7ADFE374B01981968CA
:10FD00001022FFF7DBFD0D23181A344B01229860F7
:10FD1000334B28499A55294B00228E70DA6448E00B
:10FD2000304B1B68002B44D1FF2942D1301C0021ED
:10FD300000F09AF8301C012100F05CF80320311C1F
:10FD4000FFF7E6FD1F4B03229A55274C1E4B00255B
:10FD500001276760E550A223DB00E550A123DB000B
:10FD6000E550A823DB000D21E760E150184B80220D
:10FD7000E5501E4B12035D641D65C1239B00E250DC
:10FD80000A201B49FFF72EFD301C0321221C2B1CCF
:10FD90002760FFF75FFE104B102219680198FFF7EC
:10FDA0008DFD0E4B0D22101AD860034B1E700C4BAC
:10FDB0009F55F7BD1620002005200020FC90004034
:10FDC00000900040192000200405000044050000B8
:10FDD0004C05000089F9010020200020242000208B
:10FDE000CC210020E021002000A00040FCA0004029
:10FDF00049F9010000B5021E062A27D80C2925D88A
:10FE0000C132A023FF32081CDB05920000F0A8F9E4
:10FE100007140B07090D0F121416181A1C000021E5
:10FE200013E0042111E00C210FE001210DE002217B
:10FE3000FF310AE0064908E0064906E0064904E009
:10FE4000064902E0064900E00649995000BDC04657
:10FE50000102000001030000010400000105000090
:10FE6000010600000107000070B50B4D041C2B5C5F
:10FE70000E1C002B03D0FFF721FE00232B5501227F
:10FE8000A023A240DB05141C002E02D0A121C90032
:10FE900000E002495C5070BDCC2100200C05000040
:10FEA000F8B5061C0C1C8F180025BC4207D033681F
:10FEB00021781B68301C984701342D18F5E7281C61
:10FEC000F8BD70B5051C0C1E09D00368081C5E68DF
:10FED00000F0A0F9211C021C281CB04700E0081CFF
:10FEE00070BD08B503681B68984708BD38B50D217B
:10FEF000041CFFF7F6FF0A21051C201CFFF7F1FF89
:10FF0000401938BD38B5041CFFF7DBFF051C201C69
:10FF1000FFF7ECFF281838BD10B500214022041C63
:10FF200000F070F900232364201C636410BD036C8F
:10FF30003F2201331340426C934202D0026C815441
:10FF4000036470470120704710B503680022DC6924
:10FF50000123A04710BD0369186C5B6C4030C01AC8
:10FF60003F23184070470369196C5A6C914202D0C4
:10FF70005A6C985C01E00120404270470369196C9B
:10FF80005A6C914207D05A6C3F21985C5A6C0132EE
:10FF90000A405A6401E0012040427047037E002B72
:10FFA000FCD1704710B500240476081C111C1A1CE3
:10FFB000FFF70CFA10BD10B5041CFFF7D9F923693F
:10FFC0005A6C1A6410BD000000234360FA239B00A2
:10FFD0008360034B01610833036042617047C04690
:10FFE000F802020008B54369196C5A6C914202D1BB
:10FFF000002303760AE0012202765A6C3F21985CC6
:020000022000DC
:100000005A6C01320A405A64FFF76CF908BD0000CF
:1000100038B50E4B041C1B78002B15D04069036CBF
:100020000B4D0133426C2B4004D54025013B6D4202
:100030002B4301339342F2D0FFF779FF237E002B4D
:1000400002D1201CFFF7CEFF012038BD1C2100206B
:100050003F00008038B5114B041C1A6A1D1C002A91
:1000600004D0FFF755F9201CFFF7BCFFEB68002B0D
:1000700012D0FFF747F9A323094ADB00D558FFF751
:100080004DF9002808D12069E9B2FFF750FF054B70
:10009000002B01D000E000BF38BDC046FC2000406E
:1000A000002000400000000008B5FFF717F9FFF737
:1000B00097F8FFF735F8FCE77047000008B5044BE8
:1000C0005A68044BD205520DD358984708BDC04614
:1000D00000ED00E038200020FEE700001048114944
:1000E00010B5884201D0002301E00F4B07E00F4C10
:1000F000CA18A242F9D2C45804331460F7E70C4A74
:10010000191D043B934203D200221A600B1CF6E730
:1001100000F052F800F00EF8FFF7C6FFFEE7C04609
:100120004C03020000200020FC200020F8200020CA
:10013000F4210020064B1B681B061B0F012B06D168
:10014000044A054B1A608022044B12021A60704761
:10015000E80F00F0DFFF07C004050040186C004006
:1001600002B4714649084900095C49008E4402BC4A
:100170007047C0469C460304F0B51B0C17043F0CA7
:10018000150C1E1C041C000C7E436B434743454367
:10019000FB18300C1818874202D980235B02ED1837
:1001A000030CED1863465C434A433604360CA11831
:1001B000000480194919F0BD70B50E4B0E4D002496
:1001C000ED1AAD101E1CAC4204D0A300F3589847A2
:1001D0000134F8E700F0A8F8084B094D0024ED1AA7
:1001E000AD101E1CAC4204D0A300F3589847013454
:1001F000F8E770BD34030200340302003403020048
:100200003C030200031C8218934202D01970013390
:10021000FAE770470023C25C0133002AFBD1581E65
:100220007047496E697469616C6973696E67003EF5
:100230003E3E3E3E3E52756E6E696E67205465735B
:1002400074005465737420506173736564212121B7
:1002500000424C45202B2055415254203E20393637
:1002600030302062617564206E6F74207265636F38
:100270006D6D656E6465642064756520746F2063C0
:100280007269746963616C20424C452074696D69C0
:100290006E6720726571756972656D656E74732E17
:1002A0000D0A546F206F766572726964652C206147
:1002B00064643A206F766572726964655F75617215
:1002C000745F6C696D6974203D20747275653B20A4
:1002D000746F2074686520746F70206F662073657A
:1002E000747570282920696E20796F757220736B80
:1002F000657463682E00000000000000000000002C
:1003000011000200A1FE010057FF01007DFF010066
:1003100067FF01009DFF010049FF0100A5FF0100EB
:10032000B7FF010045FF0100F8B5C046F8BC08BCA6
:100330009E467047E9F0010045F30100F8B5C0465C
:0C034000F8BC08BC9E467047C1F00100EC
:10034C0000EC030001FFFFFFFFFFFFFFFFFFFFFFBC
:10035C00FFFFFFFFFFFFFFFFFFFFFFFFFFFFFFFFA1
:10036C00080000000D0000000D0000000D00000052
:10037C000D0000007820002000000000D9000200D1
:10038C00D9000200D90002000000000000000000AB
:10039C000000000000000000000000000000000051
:1003AC0000000000D9000200000000000000000066
:1003BC00D9000200D900020000000000000000007B
:1003CC000000000000000000000000000000000021
:1003DC000000000000000000000000000000000011
:1003EC000000000000000000000000000000000001
:1003FC0000000000000000000000000000000000F1
:10040C0000000000000000000000000000000000E0
:10041C0000000000000000000000000000000000D0
:10042C0000000000000000000000000000000000C0
:08043C000000000000000000B8
:040000031000F000F9
:00000001FF
