:020000021000EC
:10F00000004000205DF901003DF901003DF90100DB
:10F0100000000000000000000000000000000000F0
:10F020000000000000000000000000003DF90100A9
:10F0300000000000000000003DF901003DF9010062
:10F040003DF901003DF901003DF901003DF90100E4
:10F050003DF90100000000003DF901003DF901000B
:10F060003DF901003DF901003DF901003DF90100C4
:10F070003DF901003DF901003DF901003DF90100B4
:10F080003DF901003DF901003DF901003DF90100A4
:10F090003DF901003DF901003DF901003DF9010094
:10F0A0003DF901003DF901000000000000000000F2
:10F0B0000000000000000000000000000000000050
:10F0C00010B5064C2378002B07D1054B002B02D03E
:10F0D000044800E000BF0123237010BDE0200020A1
:10F0E0000000000094FB010008B5084B002B03D082
:10F0F0000748084900E000BF07480368002B03D019
:10F10000064B002B00D0984708BDC0460000000009
:10F1100094FB0100E420002094FB010000000000AB
:10F12000012008B5011C00F091FA0120011C00F03B
:10F13000C7FA642000F07CFA0120002100F0C0FA38
:10F1400008BD012008B5011C00F0BAFAC82000F083
:10F150006FFA0120002100F0B3FAC820800000F00F
:10F1600067FA08BD08B5024800F064FB08BDC04658
:10F170000021002038B50A4CA12301250022DB0024
:10F180006560A560E2500223D1229A40A350C122BB
:10F190009A40A3501120034900F0EAF9256038BDD8
:10F1A00000100140A1F5010008B5FFF7E3FF08BD1D
:10F1B000044B054AD050054B1A78012A01D102228E
:10F1C0001A7070471C05000000200040FC20002041
:10F1D000014B0022DA607047FC200040014B002206
:10F1E0001A627047FC20004008499022D2008858DB
:10F1F000012330B5184001D08B5004E08D58042411
:10F20000254201D08C50181C30BDC0460020004063
:10F2100038B5074D281C00F06FFA064C201C00F092
:10F220006BFA291C221C044800F0BEFA38BDC04607
:10F230001C210020642100200021002070B50E4D0B
:10F240002B78002B17D00D4C0D4800F097FA0123B6
:10F25000E3606360A023DB000026E650022000F09C
:10F2600091F9084B0C21E258A023C132FF329200E1
:10F27000DB05D1502E7070BDFC2000200020004026
:10F28000002100200C05000008B5011C014800F019
:10F29000AFFA08BD00210020F8B5041C59480678D3
:10F2A000002E00D0ACE0E02040001718A025564802
:10F2B000ED05BF007851E02040000F18BF007E51DF
:10F2C000524D534EAA51534AA950962212029442CB
:10F2D0005DD029DC96229201944252D00EDC962217
:10F2E0001201944248D096225201944247D096226D
:10F2F000D200944256D19E23DB0253E09622D201E3
:10F30000944240D006DCE122920194424AD1EC239F
:10F310009B0347E0E122D201944236D03E4A944218
:10F3200040D180231B043DE0E1229202944234D07C
:10F330000DDC9622520294422BD0E12252029442DA
:10F3400029D0E122120294422CD1344B2AE0E1224E
:10F35000D202944223D005DC314A944222D1802348
:10F36000DB041FE0E122120394421AD02D4A94429A
:10F3700018D180235B0515E09D231B0312E02A4B67
:10F3800010E02A4B0EE02A4B0CE02A4B0AE02A4BF5
:10F3900008E02A4B06E02A4B04E02A4B02E02A4B05
:10F3A00000E02A4B2A4A8421AB50A0230422DB0030
:10F3B000EA50284B0022DA601A62C1239B00EA5807
:10F3C00001260A43EA500F4B022023491E7000F029
:10F3D000CFF8224BAE601B782E60002B10D1204B53
:10F3E0001B68002B0CD096239B019C4208DD1D4C12
:10F3F0002078002803D00134FFF746FFF8E7FEE746
:10F40000F8BDC046FC2000200103000000200040A1
:10F410000C05000014050000127A000000F0EB005B
:10F4200090D0030040420F0000B0130000502700AE
:10F4300000A04E0000F0750000509D0000903A01C1
:10F4400000E0D70100B0AF0300705F07A4DFBE0E7D
:10F4500024050000FC20004065F10100FD20002093
:10F46000B421002094FA010023DF704724DF7047A5
:10F4700028DF704743DF704770B58901002815DA2F
:10F48000C0B20F230340083B124A9B089B009B1805
:10F4900003221040FF24C200DD69201C90408543F8
:10F4A0000C4094402A1C2243DA6112E082080A4B85
:10F4B00003249200D2182040C023A0409B00FF24C8
:10F4C000D558261C8640B5430C408440281C204358
:10F4D000D05070BD00ED00E000E100E008B5074B42
:10F4E0001A6801238340181C002A02D0FFF7C2FFCC
:10F4F00003E0A1220249D2008B5008BDB4210020B4
:10F5000000F001400D4B10B51B68041C002B08D007
:10F5100044B2201C0121FFF7ABFF201CFFF7A4FF22
:10F520000AE040B20121FFF7A7FF1F231C4001237F
:10F53000A3401C1C024B1C6010BDC046B42100201F
:10F5400000E100E008B5084B1B68002B03D040B277
:10F55000FFF78CFF06E01F23184001238340181C8F
:10F56000024BD86708BDC046B421002004E100E08A
:10F5700008B5034B82001B68D150FFF7C3FF08BDDD
:10F580001C20002010B5041CFFF7DCFF024BA40078
:10F590001B680022E25010BD1C200020000000006B
:10F5A00030B50F4DAB68002B10D00E4C0B4B0A4AF8
:10F5B0002068616812184B412260636020686168AE
:10F5C000CBB2021C226063600023AB6000236B643B
:10F5D00030BDC046C046C04600000001000000002B
:10F5E000FC100140B82100200B4B0C4A18685968E8
:10F5F0000B4B10B5D4580023221C80185941054BE1
:10F60000034A00F0F7F94B04C00B1843C90B10BDB7
:10F61000E803000000000000B821002000100140B5
:10F6200004050000C046C04608B5FFF7DDFF08BD71
:10F6300038B5041CFFF7F8FF051CFFF7F5FF401B6A
:10F64000A04202D200F028F9F7E738BD00B5021E4B
:10F65000062A27D80C2925D8C132A023FF32081C3E
:10F66000DB05920000F0BCF907140B07090D0F121F
:10F670001416181A1C00002113E0042111E00C21BB
:10F680000FE001210DE00221FF310AE0064908E008
:10F69000064906E0064904E0064902E0064900E0A2
:10F6A0000649995000BDC046010200000103000058
:10F6B0000104000001050000010600000107000030
:10F6C00070B50B4D041C2B5C0E1C002B03D000F0FE
:10F6D000E5F800232B550122A023A240DB05141CD2
:10F6E000002E02D0A121C90000E002495C5070BD8B
:10F6F000AC2100200C05000010B500214022041CA4
:10F7000000F0C0F900232364201C636410BD036C67
:10F710003F2201331340426C934202D0026C815469
:10F72000036470470120704710B503680022DC694C
:10F730000123A04710BD0369186C5B6C4030C01AF0
:10F740003F23184070470369196C5A6C914202D0EC
:10F750005A6C985C01E00120404270470369196CC3
:10F760005A6C914207D05A6C3F21985C5A6C013216
:10F770000A405A6401E0012040427047037E002B9A
:10F78000FCD1704710B500240476081C111C1A1C0B
:10F79000FFF782FD10BD10B5041CFFF74FFD236974
:10F7A0005A6C1A6410BD000000234360FA239B00CA
:10F7B0008360034B01610833036042617047C046B8
:10F7C00040FB010008B54369196C5A6C914202D1A3
:10F7D000002303760AE0012202765A6C3F21985CEE
:10F7E0005A6C01320A405A64FFF7E2FC08BD00007F
:10F7F00038B50E4B041C1B78002B15D04069036CE8
:10F800000B4D0133426C2B4004D54025013B6D422A
:10F810002B4301339342F2D0FFF779FF237E002B75
:10F8200002D1201CFFF7CEFF012038BDFC200020B4
:10F830003F00008038B5114B041C1A6A1D1C002AB9
:10F8400004D0FFF7CBFC201CFFF7BCFFEB68002BBC
:10F8500012D0FFF7BDFCA323094ADB00D558FFF700
:10F86000C3FC002808D12069E9B2FFF750FF054B1F
:10F87000002B01D000E000BF38BDC046FC20004096
:10F88000002000400000000008B5FFF78DFCFFF7E6
:10F8900047FCFFF756FCFCE77047000070B5184EB8
:10F8A0004500041CA85DFF2803D0FFF717FEFF23C7
:10F8B000AB5575196878FF2803D0FFF70FFEFF23BB
:10F8C0006B70104B1A5DFF2A07D04532FF320E488D
:10F8D0000E4992005050FF221A5500230C4A9A18E4
:10F8E0001178A14201D1FF2111700A4A9A181178AA
:10F8F000A14201D1FF2111700133032BEED170BD64
:10F900000320002014200020001F0300006000409E
:10F910001120002000200020F8B5061C0C1C8F18B8
:10F920000025BC4207D0336821781B68301C9847FB
:10F9300001342D18F5E7281CF8BD000008B5044B6C
:10F940005A68044BD205520DD358984708BDC0469B
:10F9500000ED00E020200020FEE7000010481149E3
:10F9600010B5884201D0002301E00F4B07E00F4C97
:10F97000CA18A242F9D2C45804331460F7E70C4AFB
:10F98000191D043B934203D200221A600B1CF6E7B8
:10F9900000F052F800F00EF8FFF776FFFEE7C046E1
:10F9A00094FB010000200020E4200020E020002043
:10F9B000C0210020064B1B681B061B0F012B06D124
:10F9C000044A054B1A608022044B12021A607047E9
:10F9D000E80F00F0DFFF07C004050040186C00408E
:10F9E00002B4714649084900095C49008E4402BCD2
:10F9F0007047C0469C460304F0B51B0C17043F0C2F
:10FA0000150C1E1C041C000C7E436B4347434543EE
:10FA1000FB18300C1818874202D980235B02ED18BE
:10FA2000030CED1863465C434A433604360CA118B8
:10FA3000000480194919F0BD70B50E4B0E4D00241D
:10FA4000ED1AAD101E1CAC4204D0A300F358984729
:10FA50000134F8E700F08CF8084B094D0024ED1A4A
:10FA6000AD101E1CAC4204D0A300F35898470134DB
:10FA7000F8E770BD7CFB01007CFB01007CFB010012
:10FA800084FB0100031C8218934202D019700133D9
:10FA9000FAE77047424C45202B2055415254203EF6
:10FAA00020393630302062617564206E6F742072A8
:10FAB00065636F6D6D656E64656420647565207443
:10FAC0006F20637269746963616C20424C452074D5
:10FAD000696D696E6720726571756972656D656EB5
:10FAE00074732E0D0A546F206F76657272696465A7
:10FAF0002C206164643A206F766572726964655F78
:10FB0000756172745F6C696D6974203D20747275E3
:10FB1000653B20746F2074686520746F70206F6679
:10FB2000207365747570282920696E20796F75724D
:10FB300020736B657463682E0000000000000000F5
:10FB40000000000000000000F1F7010019F90100B9
:10FB500037F701005DF7010047F701007DF701006D
:10FB600029F7010085F7010097F7010025F701004B
:10FB7000F8B5C046F8BC08BC9E467047E9F00100E5
:10FB800011F20100F8B5C046F8BC08BC9E467047AB
:04FB9000C1F00100BF
:10FB9400FFFFFFFFFFFFFFFFFFFFFFFFFFFFFFFF71
:10FBA400FFFFFFFFFFFFFFFFFFFFFF0060200020BC
:10FBB4000000000059F9010059F9010059F9010048
:10FBC4000000000000000000000000000000000031
:10FBD40000000000000000000000000059F90100CE
:10FBE400000000000000000059F9010059F901006B
:10FBF4000000000000000000000000000000000001
:10FC040000000000000000000000000000000000F0
:10FC140000000000000000000000000000000000E0
:10FC240000000000000000000000000000000000D0
:10FC340000000000000000000000000000000000C0
:10FC440000000000000000000000000000000000B0
:10FC540000000000000000000000000000000000A0
:10FC64000000000000000000000000000000000090
:040000031000F000F9
:00000001FF
